{
  "_format": "hh-sol-artifact-1",
  "contractName": "MusicNFT",
  "sourceName": "contracts/MusicNFT.sol",
  "abi": [
    {
      "inputs": [],
      "stateMutability": "nonpayable",
      "type": "constructor"
    },
    {
      "anonymous": false,
      "inputs": [
        {
          "indexed": true,
          "internalType": "address",
          "name": "owner",
          "type": "address"
        },
        {
          "indexed": true,
          "internalType": "address",
          "name": "approved",
          "type": "address"
        },
        {
          "indexed": true,
          "internalType": "uint256",
          "name": "tokenId",
          "type": "uint256"
        }
      ],
      "name": "Approval",
      "type": "event"
    },
    {
      "anonymous": false,
      "inputs": [
        {
          "indexed": true,
          "internalType": "address",
          "name": "owner",
          "type": "address"
        },
        {
          "indexed": true,
          "internalType": "address",
          "name": "operator",
          "type": "address"
        },
        {
          "indexed": false,
          "internalType": "bool",
          "name": "approved",
          "type": "bool"
        }
      ],
      "name": "ApprovalForAll",
      "type": "event"
    },
    {
      "anonymous": false,
      "inputs": [
        {
          "indexed": true,
          "internalType": "address",
          "name": "from",
          "type": "address"
        },
        {
          "indexed": true,
          "internalType": "address",
          "name": "to",
          "type": "address"
        },
        {
          "indexed": true,
          "internalType": "uint256",
          "name": "tokenId",
          "type": "uint256"
        }
      ],
      "name": "Transfer",
      "type": "event"
    },
    {
      "inputs": [
        {
          "internalType": "address",
          "name": "to",
          "type": "address"
        },
        {
          "internalType": "uint256",
          "name": "tokenId",
          "type": "uint256"
        }
      ],
      "name": "approve",
      "outputs": [],
      "stateMutability": "nonpayable",
      "type": "function"
    },
    {
      "inputs": [
        {
          "internalType": "address",
          "name": "owner",
          "type": "address"
        }
      ],
      "name": "balanceOf",
      "outputs": [
        {
          "internalType": "uint256",
          "name": "",
          "type": "uint256"
        }
      ],
      "stateMutability": "view",
      "type": "function"
    },
    {
      "inputs": [
        {
          "internalType": "uint256",
          "name": "tokenId",
          "type": "uint256"
        }
      ],
      "name": "burnCollectible",
      "outputs": [],
      "stateMutability": "nonpayable",
      "type": "function"
    },
    {
      "inputs": [
        {
          "internalType": "string",
          "name": "tokenUri",
          "type": "string"
        },
        {
          "internalType": "string",
          "name": "fingerprint",
          "type": "string"
        },
        {
          "internalType": "string",
          "name": "spectrogram",
          "type": "string"
        }
      ],
      "name": "createCollectible",
      "outputs": [
        {
          "internalType": "uint256",
          "name": "",
          "type": "uint256"
        }
      ],
      "stateMutability": "nonpayable",
      "type": "function"
    },
    {
      "inputs": [
        {
          "internalType": "uint256",
          "name": "tokenId",
          "type": "uint256"
        },
        {
          "internalType": "string",
          "name": "tokenUri",
          "type": "string"
        }
      ],
      "name": "forkCollectible",
      "outputs": [
        {
          "internalType": "uint256",
          "name": "",
          "type": "uint256"
        }
      ],
      "stateMutability": "payable",
      "type": "function"
    },
    {
      "inputs": [
        {
          "internalType": "uint256",
          "name": "tokenId",
          "type": "uint256"
        }
      ],
      "name": "getApproved",
      "outputs": [
        {
          "internalType": "address",
          "name": "",
          "type": "address"
        }
      ],
      "stateMutability": "view",
      "type": "function"
    },
    {
      "inputs": [
        {
          "internalType": "uint256",
          "name": "tokenId",
          "type": "uint256"
        }
      ],
      "name": "getByTokenId",
      "outputs": [
        {
          "components": [
            {
              "internalType": "string",
              "name": "tokenUri",
              "type": "string"
            },
            {
              "internalType": "uint256",
              "name": "parentTokenId",
              "type": "uint256"
            },
            {
              "internalType": "bool",
              "name": "isForkable",
              "type": "bool"
            },
            {
              "internalType": "uint256",
              "name": "forkPrice",
              "type": "uint256"
            },
            {
              "internalType": "string",
              "name": "fingerprint",
              "type": "string"
            },
            {
              "internalType": "string",
              "name": "spectrogram",
              "type": "string"
            },
            {
              "internalType": "address",
              "name": "creator",
              "type": "address"
            }
          ],
          "internalType": "struct MusicNFT.TokenData",
          "name": "",
          "type": "tuple"
        }
      ],
      "stateMutability": "view",
      "type": "function"
    },
    {
      "inputs": [],
      "name": "getForkable",
      "outputs": [
        {
          "components": [
            {
              "internalType": "string",
              "name": "tokenUri",
              "type": "string"
            },
            {
              "internalType": "uint256",
              "name": "parentTokenId",
              "type": "uint256"
            },
            {
              "internalType": "bool",
              "name": "isForkable",
              "type": "bool"
            },
            {
              "internalType": "uint256",
              "name": "forkPrice",
              "type": "uint256"
            },
            {
              "internalType": "string",
              "name": "fingerprint",
              "type": "string"
            },
            {
              "internalType": "string",
              "name": "spectrogram",
              "type": "string"
            },
            {
              "internalType": "address",
              "name": "creator",
              "type": "address"
            }
          ],
          "internalType": "struct MusicNFT.TokenData[]",
          "name": "",
          "type": "tuple[]"
        }
      ],
      "stateMutability": "view",
      "type": "function"
    },
    {
      "inputs": [
        {
          "internalType": "address",
          "name": "owner",
          "type": "address"
        }
      ],
      "name": "getOwnedTokens",
      "outputs": [
        {
          "components": [
            {
              "internalType": "string",
              "name": "tokenUri",
              "type": "string"
            },
            {
              "internalType": "uint256",
              "name": "parentTokenId",
              "type": "uint256"
            },
            {
              "internalType": "bool",
              "name": "isForkable",
              "type": "bool"
            },
            {
              "internalType": "uint256",
              "name": "forkPrice",
              "type": "uint256"
            },
            {
              "internalType": "string",
              "name": "fingerprint",
              "type": "string"
            },
            {
              "internalType": "string",
              "name": "spectrogram",
              "type": "string"
            },
            {
              "internalType": "address",
              "name": "creator",
              "type": "address"
            }
          ],
          "internalType": "struct MusicNFT.TokenData[]",
          "name": "",
          "type": "tuple[]"
        }
      ],
      "stateMutability": "view",
      "type": "function"
    },
    {
      "inputs": [
        {
          "internalType": "address",
          "name": "owner",
          "type": "address"
        },
        {
          "internalType": "address",
          "name": "operator",
          "type": "address"
        }
      ],
      "name": "isApprovedForAll",
      "outputs": [
        {
          "internalType": "bool",
          "name": "",
          "type": "bool"
        }
      ],
      "stateMutability": "view",
      "type": "function"
    },
    {
      "inputs": [],
      "name": "name",
      "outputs": [
        {
          "internalType": "string",
          "name": "",
          "type": "string"
        }
      ],
      "stateMutability": "view",
      "type": "function"
    },
    {
      "inputs": [
        {
          "internalType": "uint256",
          "name": "tokenId",
          "type": "uint256"
        }
      ],
      "name": "ownerOf",
      "outputs": [
        {
          "internalType": "address",
          "name": "",
          "type": "address"
        }
      ],
      "stateMutability": "view",
      "type": "function"
    },
    {
      "inputs": [
        {
          "internalType": "address",
          "name": "from",
          "type": "address"
        },
        {
          "internalType": "address",
          "name": "to",
          "type": "address"
        },
        {
          "internalType": "uint256",
          "name": "tokenId",
          "type": "uint256"
        }
      ],
      "name": "safeTransferFrom",
      "outputs": [],
      "stateMutability": "nonpayable",
      "type": "function"
    },
    {
      "inputs": [
        {
          "internalType": "address",
          "name": "from",
          "type": "address"
        },
        {
          "internalType": "address",
          "name": "to",
          "type": "address"
        },
        {
          "internalType": "uint256",
          "name": "tokenId",
          "type": "uint256"
        },
        {
          "internalType": "bytes",
          "name": "data",
          "type": "bytes"
        }
      ],
      "name": "safeTransferFrom",
      "outputs": [],
      "stateMutability": "nonpayable",
      "type": "function"
    },
    {
      "inputs": [
        {
          "internalType": "address",
          "name": "operator",
          "type": "address"
        },
        {
          "internalType": "bool",
          "name": "approved",
          "type": "bool"
        }
      ],
      "name": "setApprovalForAll",
      "outputs": [],
      "stateMutability": "nonpayable",
      "type": "function"
    },
    {
      "inputs": [
        {
          "internalType": "uint256",
          "name": "tokenId",
          "type": "uint256"
        },
        {
          "internalType": "bool",
          "name": "isForkable",
          "type": "bool"
        },
        {
          "internalType": "uint256",
          "name": "forkPrice",
          "type": "uint256"
        }
      ],
      "name": "setForkable",
      "outputs": [],
      "stateMutability": "nonpayable",
      "type": "function"
    },
    {
      "inputs": [
        {
          "internalType": "bytes4",
          "name": "interfaceId",
          "type": "bytes4"
        }
      ],
      "name": "supportsInterface",
      "outputs": [
        {
          "internalType": "bool",
          "name": "",
          "type": "bool"
        }
      ],
      "stateMutability": "view",
      "type": "function"
    },
    {
      "inputs": [],
      "name": "symbol",
      "outputs": [
        {
          "internalType": "string",
          "name": "",
          "type": "string"
        }
      ],
      "stateMutability": "view",
      "type": "function"
    },
    {
      "inputs": [],
      "name": "tokenCounter",
      "outputs": [
        {
          "internalType": "uint256",
          "name": "",
          "type": "uint256"
        }
      ],
      "stateMutability": "view",
      "type": "function"
    },
    {
      "inputs": [
        {
          "internalType": "uint256",
          "name": "tokenId",
          "type": "uint256"
        }
      ],
      "name": "tokenURI",
      "outputs": [
        {
          "internalType": "string",
          "name": "",
          "type": "string"
        }
      ],
      "stateMutability": "view",
      "type": "function"
    },
    {
      "inputs": [
        {
          "internalType": "address",
          "name": "from",
          "type": "address"
        },
        {
          "internalType": "address",
          "name": "to",
          "type": "address"
        },
        {
          "internalType": "uint256",
          "name": "tokenId",
          "type": "uint256"
        }
      ],
      "name": "transferFrom",
      "outputs": [],
      "stateMutability": "nonpayable",
      "type": "function"
    },
    {
      "inputs": [
        {
          "internalType": "uint256",
          "name": "tokenId",
          "type": "uint256"
        }
      ],
      "name": "unsetForkable",
      "outputs": [],
      "stateMutability": "nonpayable",
      "type": "function"
    }
  ],
  "bytecode": "0x608060405234801562000010575f80fd5b506040518060400160405280600881526020017f4d757369634e46540000000000000000000000000000000000000000000000008152506040518060400160405280600381526020017f4d55530000000000000000000000000000000000000000000000000000000000815250815f90816200008d919062000314565b5080600190816200009f919062000314565b5050506001600681905550620003f8565b5f81519050919050565b7f4e487b71000000000000000000000000000000000000000000000000000000005f52604160045260245ffd5b7f4e487b71000000000000000000000000000000000000000000000000000000005f52602260045260245ffd5b5f60028204905060018216806200012c57607f821691505b602082108103620001425762000141620000e7565b5b50919050565b5f819050815f5260205f209050919050565b5f6020601f8301049050919050565b5f82821b905092915050565b5f60088302620001a67fffffffffffffffffffffffffffffffffffffffffffffffffffffffffffffffff8262000169565b620001b2868362000169565b95508019841693508086168417925050509392505050565b5f819050919050565b5f819050919050565b5f620001fc620001f6620001f084620001ca565b620001d3565b620001ca565b9050919050565b5f819050919050565b6200021783620001dc565b6200022f620002268262000203565b84845462000175565b825550505050565b5f90565b6200024562000237565b620002528184846200020c565b505050565b5b8181101562000279576200026d5f826200023b565b60018101905062000258565b5050565b601f821115620002c857620002928162000148565b6200029d846200015a565b81016020851015620002ad578190505b620002c5620002bc856200015a565b83018262000257565b50505b505050565b5f82821c905092915050565b5f620002ea5f1984600802620002cd565b1980831691505092915050565b5f620003048383620002d9565b9150826002028217905092915050565b6200031f82620000b0565b67ffffffffffffffff8111156200033b576200033a620000ba565b5b62000347825462000114565b620003548282856200027d565b5f60209050601f8311600181146200038a575f841562000375578287015190505b620003818582620002f7565b865550620003f0565b601f1984166200039a8662000148565b5f5b82811015620003c3578489015182556001820191506020850194506020810190506200039c565b86831015620003e35784890151620003df601f891682620002d9565b8355505b6001600288020188555050505b505050505050565b61430c80620004065f395ff3fe608060405260043610610134575f3560e01c806370a08231116100aa578063b88d4fde1161006e578063b88d4fde1461043e578063c87b56dd14610466578063d082e381146104a2578063d287f3de146104cc578063d9d61655146104f4578063e985e9c51461053057610134565b806370a082311461034c5780637e5b7f0b1461038857806385ed68ab146103b057806395d89b41146103ec578063a22cb4651461041657610134565b8063279f2ad0116100fc578063279f2ad01461022a57806342842e0e146102525780635715c7c41461027a5780636352211e146102b65780636bdd8cba146102f25780636f5a701c1461032257610134565b806301ffc9a71461013857806306fdde0314610174578063081812fc1461019e578063095ea7b3146101da57806323b872dd14610202575b5f80fd5b348015610143575f80fd5b5061015e60048036038101906101599190612b80565b61056c565b60405161016b9190612bc5565b60405180910390f35b34801561017f575f80fd5b5061018861064d565b6040516101959190612c68565b60405180910390f35b3480156101a9575f80fd5b506101c460048036038101906101bf9190612cbb565b6106dc565b6040516101d19190612d25565b60405180910390f35b3480156101e5575f80fd5b5061020060048036038101906101fb9190612d68565b61071e565b005b34801561020d575f80fd5b5061022860048036038101906102239190612da6565b610834565b005b348015610235575f80fd5b50610250600480360381019061024b9190612e20565b6108b2565b005b34801561025d575f80fd5b5061027860048036038101906102739190612da6565b6109c7565b005b348015610285575f80fd5b506102a0600480360381019061029b9190612cbb565b6109e6565b6040516102ad9190612f8c565b60405180910390f35b3480156102c1575f80fd5b506102dc60048036038101906102d79190612cbb565b610c43565b6040516102e99190612d25565b60405180910390f35b61030c600480360381019061030791906130d8565b610cc7565b6040516103199190613141565b60405180910390f35b34801561032d575f80fd5b50610336610ed2565b60405161034391906132bc565b60405180910390f35b348015610357575f80fd5b50610372600480360381019061036d91906132dc565b61124c565b60405161037f9190613141565b60405180910390f35b348015610393575f80fd5b506103ae60048036038101906103a99190612cbb565b611300565b005b3480156103bb575f80fd5b506103d660048036038101906103d19190613307565b611413565b6040516103e39190613141565b60405180910390f35b3480156103f7575f80fd5b50610400611453565b60405161040d9190612c68565b60405180910390f35b348015610421575f80fd5b5061043c600480360381019061043791906133ab565b6114e3565b005b348015610449575f80fd5b50610464600480360381019061045f9190613487565b6114f9565b005b348015610471575f80fd5b5061048c60048036038101906104879190612cbb565b61155b565b6040516104999190612c68565b60405180910390f35b3480156104ad575f80fd5b506104b66115c0565b6040516104c39190613141565b60405180910390f35b3480156104d7575f80fd5b506104f260048036038101906104ed9190612cbb565b6115c6565b005b3480156104ff575f80fd5b5061051a600480360381019061051591906132dc565b611648565b60405161052791906132bc565b60405180910390f35b34801561053b575f80fd5b5061055660048036038101906105519190613507565b6119de565b6040516105639190612bc5565b60405180910390f35b5f7f80ac58cd000000000000000000000000000000000000000000000000000000007bffffffffffffffffffffffffffffffffffffffffffffffffffffffff1916827bffffffffffffffffffffffffffffffffffffffffffffffffffffffff1916148061063657507f5b5e139f000000000000000000000000000000000000000000000000000000007bffffffffffffffffffffffffffffffffffffffffffffffffffffffff1916827bffffffffffffffffffffffffffffffffffffffffffffffffffffffff1916145b80610646575061064582611a6c565b5b9050919050565b60605f805461065b90613572565b80601f016020809104026020016040519081016040528092919081815260200182805461068790613572565b80156106d25780601f106106a9576101008083540402835291602001916106d2565b820191905f5260205f20905b8154815290600101906020018083116106b557829003601f168201915b5050505050905090565b5f6106e682611ad5565b60045f8381526020019081526020015f205f9054906101000a900473ffffffffffffffffffffffffffffffffffffffff169050919050565b5f61072882610c43565b90508073ffffffffffffffffffffffffffffffffffffffff168373ffffffffffffffffffffffffffffffffffffffff1603610798576040517f08c379a000000000000000000000000000000000000000000000000000000000815260040161078f90613612565b60405180910390fd5b8073ffffffffffffffffffffffffffffffffffffffff166107b7611b20565b73ffffffffffffffffffffffffffffffffffffffff1614806107e657506107e5816107e0611b20565b6119de565b5b610825576040517f08c379a000000000000000000000000000000000000000000000000000000000815260040161081c906136a0565b60405180910390fd5b61082f8383611b27565b505050565b5f73ffffffffffffffffffffffffffffffffffffffff168373ffffffffffffffffffffffffffffffffffffffff16146108a2576040517f08c379a000000000000000000000000000000000000000000000000000000000815260040161089990613708565b60405180910390fd5b6108ad838383611bdd565b505050565b3373ffffffffffffffffffffffffffffffffffffffff166108d284610c43565b73ffffffffffffffffffffffffffffffffffffffff1614610928576040517f08c379a000000000000000000000000000000000000000000000000000000000815260040161091f90613770565b60405180910390fd5b5f60085f8581526020019081526020015f20600101540361097e576040517f08c379a0000000000000000000000000000000000000000000000000000000008152600401610975906137d8565b60405180910390fd5b8160085f8581526020019081526020015f206002015f6101000a81548160ff0219169083151502179055508060085f8581526020019081526020015f2060030181905550505050565b6109e183838360405180602001604052805f8152506114f9565b505050565b6109ee612ac9565b60085f8381526020019081526020015f206040518060e00160405290815f82018054610a1990613572565b80601f0160208091040260200160405190810160405280929190818152602001828054610a4590613572565b8015610a905780601f10610a6757610100808354040283529160200191610a90565b820191905f5260205f20905b815481529060010190602001808311610a7357829003601f168201915b5050505050815260200160018201548152602001600282015f9054906101000a900460ff1615151515815260200160038201548152602001600482018054610ad790613572565b80601f0160208091040260200160405190810160405280929190818152602001828054610b0390613572565b8015610b4e5780601f10610b2557610100808354040283529160200191610b4e565b820191905f5260205f20905b815481529060010190602001808311610b3157829003601f168201915b50505050508152602001600582018054610b6790613572565b80601f0160208091040260200160405190810160405280929190818152602001828054610b9390613572565b8015610bde5780601f10610bb557610100808354040283529160200191610bde565b820191905f5260205f20905b815481529060010190602001808311610bc157829003601f168201915b50505050508152602001600682015f9054906101000a900473ffffffffffffffffffffffffffffffffffffffff1673ffffffffffffffffffffffffffffffffffffffff1673ffffffffffffffffffffffffffffffffffffffff16815250509050919050565b5f80610c4e83611c3d565b90505f73ffffffffffffffffffffffffffffffffffffffff168173ffffffffffffffffffffffffffffffffffffffff1603610cbe576040517f08c379a0000000000000000000000000000000000000000000000000000000008152600401610cb590613840565b60405180910390fd5b80915050919050565b5f60085f8481526020019081526020015f206002015f9054906101000a900460ff16610d28576040517f08c379a0000000000000000000000000000000000000000000000000000000008152600401610d1f906138a8565b60405180910390fd5b60085f8481526020019081526020015f2060030154341015610d7f576040517f08c379a0000000000000000000000000000000000000000000000000000000008152600401610d7690613910565b60405180910390fd5b5f6006549050610d8f3382611c76565b610deb818460405180602001604052805f81525060405180602001604052805f81525060085f8a81526020019081526020015f206006015f9054906101000a900473ffffffffffffffffffffffffffffffffffffffff16611c93565b8360085f8381526020019081526020015f206001018190555060075f3373ffffffffffffffffffffffffffffffffffffffff1673ffffffffffffffffffffffffffffffffffffffff1681526020019081526020015f2081908060018154018082558091505060019003905f5260205f20015f9091909190915055610e6e84610c43565b73ffffffffffffffffffffffffffffffffffffffff166108fc3490811502906040515f60405180830381858888f19350505050158015610eb0573d5f803e3d5ffd5b5060065f815480929190610ec39061395b565b91905055508091505092915050565b60605f805b600654811015610f295760085f8281526020019081526020015f206002015f9054906101000a900460ff1615610f16578180610f129061395b565b9250505b8080610f219061395b565b915050610ed7565b505f8167ffffffffffffffff811115610f4557610f44612fb4565b5b604051908082528060200260200182016040528015610f7e57816020015b610f6b612ac9565b815260200190600190039081610f635790505b5090505f805b6006548110156112425760085f8281526020019081526020015f206002015f9054906101000a900460ff161561122f5760085f8281526020019081526020015f206040518060e00160405290815f82018054610fdf90613572565b80601f016020809104026020016040519081016040528092919081815260200182805461100b90613572565b80156110565780601f1061102d57610100808354040283529160200191611056565b820191905f5260205f20905b81548152906001019060200180831161103957829003601f168201915b5050505050815260200160018201548152602001600282015f9054906101000a900460ff161515151581526020016003820154815260200160048201805461109d90613572565b80601f01602080910402602001604051908101604052809291908181526020018280546110c990613572565b80156111145780601f106110eb57610100808354040283529160200191611114565b820191905f5260205f20905b8154815290600101906020018083116110f757829003601f168201915b5050505050815260200160058201805461112d90613572565b80601f016020809104026020016040519081016040528092919081815260200182805461115990613572565b80156111a45780601f1061117b576101008083540402835291602001916111a4565b820191905f5260205f20905b81548152906001019060200180831161118757829003601f168201915b50505050508152602001600682015f9054906101000a900473ffffffffffffffffffffffffffffffffffffffff1673ffffffffffffffffffffffffffffffffffffffff1673ffffffffffffffffffffffffffffffffffffffff1681525050838381518110611215576112146139a2565b5b6020026020010181905250818061122b9061395b565b9250505b808061123a9061395b565b915050610f84565b5081935050505090565b5f8073ffffffffffffffffffffffffffffffffffffffff168273ffffffffffffffffffffffffffffffffffffffff16036112bb576040517f08c379a00000000000000000000000000000000000000000000000000000000081526004016112b290613a3f565b60405180910390fd5b60035f8373ffffffffffffffffffffffffffffffffffffffff1673ffffffffffffffffffffffffffffffffffffffff1681526020019081526020015f20549050919050565b3373ffffffffffffffffffffffffffffffffffffffff1661132082610c43565b73ffffffffffffffffffffffffffffffffffffffff1614611376576040517f08c379a000000000000000000000000000000000000000000000000000000000815260040161136d90613aa7565b60405180910390fd5b5f60085f8381526020019081526020015f2060010154036113cc576040517f08c379a00000000000000000000000000000000000000000000000000000000081526004016113c390613b0f565b60405180910390fd5b5f60085f8381526020019081526020015f206002015f6101000a81548160ff0219169083151502179055505f60085f8381526020019081526020015f206003018190555050565b5f8060065490506114243382611c76565b6114318186868633611c93565b60065f8154809291906114439061395b565b9190505550809150509392505050565b60606001805461146290613572565b80601f016020809104026020016040519081016040528092919081815260200182805461148e90613572565b80156114d95780601f106114b0576101008083540402835291602001916114d9565b820191905f5260205f20905b8154815290600101906020018083116114bc57829003601f168201915b5050505050905090565b6114f56114ee611b20565b8383611db7565b5050565b61150a611504611b20565b83611f1e565b611549576040517f08c379a000000000000000000000000000000000000000000000000000000000815260040161154090613b9d565b60405180910390fd5b61155584848484611fb2565b50505050565b606061156682611ad5565b5f61156f61200e565b90505f81511161158d5760405180602001604052805f8152506115b8565b8061159784612024565b6040516020016115a8929190613bf5565b6040516020818303038152906040525b915050919050565b60065481565b3373ffffffffffffffffffffffffffffffffffffffff166115e682610c43565b73ffffffffffffffffffffffffffffffffffffffff161461163c576040517f08c379a000000000000000000000000000000000000000000000000000000000815260040161163390613c62565b60405180910390fd5b611645816120ee565b50565b60605f60075f8473ffffffffffffffffffffffffffffffffffffffff1673ffffffffffffffffffffffffffffffffffffffff1681526020019081526020015f208054806020026020016040519081016040528092919081815260200182805480156116d057602002820191905f5260205f20905b8154815260200190600101908083116116bc575b505050505090505f815167ffffffffffffffff8111156116f3576116f2612fb4565b5b60405190808252806020026020018201604052801561172c57816020015b611719612ac9565b8152602001906001900390816117115790505b5090505f5b82518110156119d35760085f8483815181106117505761174f6139a2565b5b602002602001015181526020019081526020015f206040518060e00160405290815f8201805461177f90613572565b80601f01602080910402602001604051908101604052809291908181526020018280546117ab90613572565b80156117f65780601f106117cd576101008083540402835291602001916117f6565b820191905f5260205f20905b8154815290600101906020018083116117d957829003601f168201915b5050505050815260200160018201548152602001600282015f9054906101000a900460ff161515151581526020016003820154815260200160048201805461183d90613572565b80601f016020809104026020016040519081016040528092919081815260200182805461186990613572565b80156118b45780601f1061188b576101008083540402835291602001916118b4565b820191905f5260205f20905b81548152906001019060200180831161189757829003601f168201915b505050505081526020016005820180546118cd90613572565b80601f01602080910402602001604051908101604052809291908181526020018280546118f990613572565b80156119445780601f1061191b57610100808354040283529160200191611944565b820191905f5260205f20905b81548152906001019060200180831161192757829003601f168201915b50505050508152602001600682015f9054906101000a900473ffffffffffffffffffffffffffffffffffffffff1673ffffffffffffffffffffffffffffffffffffffff1673ffffffffffffffffffffffffffffffffffffffff16815250508282815181106119b5576119b46139a2565b5b602002602001018190525080806119cb9061395b565b915050611731565b508092505050919050565b5f60055f8473ffffffffffffffffffffffffffffffffffffffff1673ffffffffffffffffffffffffffffffffffffffff1681526020019081526020015f205f8373ffffffffffffffffffffffffffffffffffffffff1673ffffffffffffffffffffffffffffffffffffffff1681526020019081526020015f205f9054906101000a900460ff16905092915050565b5f7f01ffc9a7000000000000000000000000000000000000000000000000000000007bffffffffffffffffffffffffffffffffffffffffffffffffffffffff1916827bffffffffffffffffffffffffffffffffffffffffffffffffffffffff1916149050919050565b611ade8161222f565b611b1d576040517f08c379a0000000000000000000000000000000000000000000000000000000008152600401611b1490613840565b60405180910390fd5b50565b5f33905090565b8160045f8381526020019081526020015f205f6101000a81548173ffffffffffffffffffffffffffffffffffffffff021916908373ffffffffffffffffffffffffffffffffffffffff160217905550808273ffffffffffffffffffffffffffffffffffffffff16611b9783610c43565b73ffffffffffffffffffffffffffffffffffffffff167f8c5be1e5ebec7d5bd14f71427d1e84f3dd0314c0f7b2291e5b200ac8c7c3b92560405160405180910390a45050565b611bee611be8611b20565b82611f1e565b611c2d576040517f08c379a0000000000000000000000000000000000000000000000000000000008152600401611c2490613b9d565b60405180910390fd5b611c3883838361226f565b505050565b5f60025f8381526020019081526020015f205f9054906101000a900473ffffffffffffffffffffffffffffffffffffffff169050919050565b611c8f828260405180602001604052805f81525061255b565b5050565b5f6040518060e001604052808681526020015f81526020015f151581526020015f81526020018581526020018481526020018373ffffffffffffffffffffffffffffffffffffffff1681525090508060085f8881526020019081526020015f205f820151815f019081611d069190613e1d565b50602082015181600101556040820151816002015f6101000a81548160ff021916908315150217905550606082015181600301556080820151816004019081611d4f9190613e1d565b5060a0820151816005019081611d659190613e1d565b5060c0820151816006015f6101000a81548173ffffffffffffffffffffffffffffffffffffffff021916908373ffffffffffffffffffffffffffffffffffffffff160217905550905050505050505050565b8173ffffffffffffffffffffffffffffffffffffffff168373ffffffffffffffffffffffffffffffffffffffff1603611e25576040517f08c379a0000000000000000000000000000000000000000000000000000000008152600401611e1c90613f36565b60405180910390fd5b8060055f8573ffffffffffffffffffffffffffffffffffffffff1673ffffffffffffffffffffffffffffffffffffffff1681526020019081526020015f205f8473ffffffffffffffffffffffffffffffffffffffff1673ffffffffffffffffffffffffffffffffffffffff1681526020019081526020015f205f6101000a81548160ff0219169083151502179055508173ffffffffffffffffffffffffffffffffffffffff168373ffffffffffffffffffffffffffffffffffffffff167f17307eab39ab6107e8899845ad3d59bd9653f200f220920489ca2b5937696c3183604051611f119190612bc5565b60405180910390a3505050565b5f80611f2983610c43565b90508073ffffffffffffffffffffffffffffffffffffffff168473ffffffffffffffffffffffffffffffffffffffff161480611f6b5750611f6a81856119de565b5b80611fa957508373ffffffffffffffffffffffffffffffffffffffff16611f91846106dc565b73ffffffffffffffffffffffffffffffffffffffff16145b91505092915050565b611fbd84848461226f565b611fc9848484846125b5565b612008576040517f08c379a0000000000000000000000000000000000000000000000000000000008152600401611fff90613fc4565b60405180910390fd5b50505050565b606060405180602001604052805f815250905090565b60605f600161203284612737565b0190505f8167ffffffffffffffff8111156120505761204f612fb4565b5b6040519080825280601f01601f1916602001820160405280156120825781602001600182028036833780820191505090505b5090505f82602001820190505b6001156120e3578080600190039150507f3031323334353637383961626364656600000000000000000000000000000000600a86061a8153600a85816120d8576120d7613fe2565b5b0494505f850361208f575b819350505050919050565b5f6120f882610c43565b9050612107815f846001612888565b61211082610c43565b905060045f8381526020019081526020015f205f6101000a81549073ffffffffffffffffffffffffffffffffffffffff0219169055600160035f8373ffffffffffffffffffffffffffffffffffffffff1673ffffffffffffffffffffffffffffffffffffffff1681526020019081526020015f205f828254039250508190555060025f8381526020019081526020015f205f6101000a81549073ffffffffffffffffffffffffffffffffffffffff0219169055815f73ffffffffffffffffffffffffffffffffffffffff168273ffffffffffffffffffffffffffffffffffffffff167fddf252ad1be2c89b69c2b068fc378daa952ba7f163c4a11628f55a4df523b3ef60405160405180910390a461222b815f84600161288e565b5050565b5f8073ffffffffffffffffffffffffffffffffffffffff1661225083611c3d565b73ffffffffffffffffffffffffffffffffffffffff1614159050919050565b8273ffffffffffffffffffffffffffffffffffffffff1661228f82610c43565b73ffffffffffffffffffffffffffffffffffffffff16146122e5576040517f08c379a00000000000000000000000000000000000000000000000000000000081526004016122dc9061407f565b60405180910390fd5b5f73ffffffffffffffffffffffffffffffffffffffff168273ffffffffffffffffffffffffffffffffffffffff1603612353576040517f08c379a000000000000000000000000000000000000000000000000000000000815260040161234a9061410d565b60405180910390fd5b6123608383836001612888565b8273ffffffffffffffffffffffffffffffffffffffff1661238082610c43565b73ffffffffffffffffffffffffffffffffffffffff16146123d6576040517f08c379a00000000000000000000000000000000000000000000000000000000081526004016123cd9061407f565b60405180910390fd5b60045f8281526020019081526020015f205f6101000a81549073ffffffffffffffffffffffffffffffffffffffff0219169055600160035f8573ffffffffffffffffffffffffffffffffffffffff1673ffffffffffffffffffffffffffffffffffffffff1681526020019081526020015f205f8282540392505081905550600160035f8473ffffffffffffffffffffffffffffffffffffffff1673ffffffffffffffffffffffffffffffffffffffff1681526020019081526020015f205f82825401925050819055508160025f8381526020019081526020015f205f6101000a81548173ffffffffffffffffffffffffffffffffffffffff021916908373ffffffffffffffffffffffffffffffffffffffff160217905550808273ffffffffffffffffffffffffffffffffffffffff168473ffffffffffffffffffffffffffffffffffffffff167fddf252ad1be2c89b69c2b068fc378daa952ba7f163c4a11628f55a4df523b3ef60405160405180910390a4612556838383600161288e565b505050565b6125658383612894565b6125715f8484846125b5565b6125b0576040517f08c379a00000000000000000000000000000000000000000000000000000000081526004016125a790613fc4565b60405180910390fd5b505050565b5f6125d58473ffffffffffffffffffffffffffffffffffffffff16612aa7565b1561272a578373ffffffffffffffffffffffffffffffffffffffff1663150b7a026125fe611b20565b8786866040518563ffffffff1660e01b8152600401612620949392919061417d565b6020604051808303815f875af192505050801561265b57506040513d601f19601f8201168201806040525081019061265891906141db565b60015b6126da573d805f8114612689576040519150601f19603f3d011682016040523d82523d5f602084013e61268e565b606091505b505f8151036126d2576040517f08c379a00000000000000000000000000000000000000000000000000000000081526004016126c990613fc4565b60405180910390fd5b805181602001fd5b63150b7a0260e01b7bffffffffffffffffffffffffffffffffffffffffffffffffffffffff1916817bffffffffffffffffffffffffffffffffffffffffffffffffffffffff19161491505061272f565b600190505b949350505050565b5f805f90507a184f03e93ff9f4daa797ed6e38ed64bf6a1f0100000000000000008310612793577a184f03e93ff9f4daa797ed6e38ed64bf6a1f010000000000000000838161278957612788613fe2565b5b0492506040810190505b6d04ee2d6d415b85acef810000000083106127d0576d04ee2d6d415b85acef810000000083816127c6576127c5613fe2565b5b0492506020810190505b662386f26fc1000083106127ff57662386f26fc1000083816127f5576127f4613fe2565b5b0492506010810190505b6305f5e1008310612828576305f5e100838161281e5761281d613fe2565b5b0492506008810190505b612710831061284d57612710838161284357612842613fe2565b5b0492506004810190505b60648310612870576064838161286657612865613fe2565b5b0492506002810190505b600a831061287f576001810190505b80915050919050565b50505050565b50505050565b5f73ffffffffffffffffffffffffffffffffffffffff168273ffffffffffffffffffffffffffffffffffffffff1603612902576040517f08c379a00000000000000000000000000000000000000000000000000000000081526004016128f990614250565b60405180910390fd5b61290b8161222f565b1561294b576040517f08c379a0000000000000000000000000000000000000000000000000000000008152600401612942906142b8565b60405180910390fd5b6129585f83836001612888565b6129618161222f565b156129a1576040517f08c379a0000000000000000000000000000000000000000000000000000000008152600401612998906142b8565b60405180910390fd5b600160035f8473ffffffffffffffffffffffffffffffffffffffff1673ffffffffffffffffffffffffffffffffffffffff1681526020019081526020015f205f82825401925050819055508160025f8381526020019081526020015f205f6101000a81548173ffffffffffffffffffffffffffffffffffffffff021916908373ffffffffffffffffffffffffffffffffffffffff160217905550808273ffffffffffffffffffffffffffffffffffffffff165f73ffffffffffffffffffffffffffffffffffffffff167fddf252ad1be2c89b69c2b068fc378daa952ba7f163c4a11628f55a4df523b3ef60405160405180910390a4612aa35f8383600161288e565b5050565b5f808273ffffffffffffffffffffffffffffffffffffffff163b119050919050565b6040518060e00160405280606081526020015f81526020015f151581526020015f815260200160608152602001606081526020015f73ffffffffffffffffffffffffffffffffffffffff1681525090565b5f604051905090565b5f80fd5b5f80fd5b5f7fffffffff0000000000000000000000000000000000000000000000000000000082169050919050565b612b5f81612b2b565b8114612b69575f80fd5b50565b5f81359050612b7a81612b56565b92915050565b5f60208284031215612b9557612b94612b23565b5b5f612ba284828501612b6c565b91505092915050565b5f8115159050919050565b612bbf81612bab565b82525050565b5f602082019050612bd85f830184612bb6565b92915050565b5f81519050919050565b5f82825260208201905092915050565b5f5b83811015612c15578082015181840152602081019050612bfa565b5f8484015250505050565b5f601f19601f8301169050919050565b5f612c3a82612bde565b612c448185612be8565b9350612c54818560208601612bf8565b612c5d81612c20565b840191505092915050565b5f6020820190508181035f830152612c808184612c30565b905092915050565b5f819050919050565b612c9a81612c88565b8114612ca4575f80fd5b50565b5f81359050612cb581612c91565b92915050565b5f60208284031215612cd057612ccf612b23565b5b5f612cdd84828501612ca7565b91505092915050565b5f73ffffffffffffffffffffffffffffffffffffffff82169050919050565b5f612d0f82612ce6565b9050919050565b612d1f81612d05565b82525050565b5f602082019050612d385f830184612d16565b92915050565b612d4781612d05565b8114612d51575f80fd5b50565b5f81359050612d6281612d3e565b92915050565b5f8060408385031215612d7e57612d7d612b23565b5b5f612d8b85828601612d54565b9250506020612d9c85828601612ca7565b9150509250929050565b5f805f60608486031215612dbd57612dbc612b23565b5b5f612dca86828701612d54565b9350506020612ddb86828701612d54565b9250506040612dec86828701612ca7565b9150509250925092565b612dff81612bab565b8114612e09575f80fd5b50565b5f81359050612e1a81612df6565b92915050565b5f805f60608486031215612e3757612e36612b23565b5b5f612e4486828701612ca7565b9350506020612e5586828701612e0c565b9250506040612e6686828701612ca7565b9150509250925092565b5f82825260208201905092915050565b5f612e8a82612bde565b612e948185612e70565b9350612ea4818560208601612bf8565b612ead81612c20565b840191505092915050565b612ec181612c88565b82525050565b612ed081612bab565b82525050565b612edf81612d05565b82525050565b5f60e083015f8301518482035f860152612eff8282612e80565b9150506020830151612f146020860182612eb8565b506040830151612f276040860182612ec7565b506060830151612f3a6060860182612eb8565b5060808301518482036080860152612f528282612e80565b91505060a083015184820360a0860152612f6c8282612e80565b91505060c0830151612f8160c0860182612ed6565b508091505092915050565b5f6020820190508181035f830152612fa48184612ee5565b905092915050565b5f80fd5b5f80fd5b7f4e487b71000000000000000000000000000000000000000000000000000000005f52604160045260245ffd5b612fea82612c20565b810181811067ffffffffffffffff8211171561300957613008612fb4565b5b80604052505050565b5f61301b612b1a565b90506130278282612fe1565b919050565b5f67ffffffffffffffff82111561304657613045612fb4565b5b61304f82612c20565b9050602081019050919050565b828183375f83830152505050565b5f61307c6130778461302c565b613012565b90508281526020810184848401111561309857613097612fb0565b5b6130a384828561305c565b509392505050565b5f82601f8301126130bf576130be612fac565b5b81356130cf84826020860161306a565b91505092915050565b5f80604083850312156130ee576130ed612b23565b5b5f6130fb85828601612ca7565b925050602083013567ffffffffffffffff81111561311c5761311b612b27565b5b613128858286016130ab565b9150509250929050565b61313b81612c88565b82525050565b5f6020820190506131545f830184613132565b92915050565b5f81519050919050565b5f82825260208201905092915050565b5f819050602082019050919050565b5f60e083015f8301518482035f86015261319d8282612e80565b91505060208301516131b26020860182612eb8565b5060408301516131c56040860182612ec7565b5060608301516131d86060860182612eb8565b50608083015184820360808601526131f08282612e80565b91505060a083015184820360a086015261320a8282612e80565b91505060c083015161321f60c0860182612ed6565b508091505092915050565b5f6132358383613183565b905092915050565b5f602082019050919050565b5f6132538261315a565b61325d8185613164565b93508360208202850161326f85613174565b805f5b858110156132aa578484038952815161328b858261322a565b94506132968361323d565b925060208a01995050600181019050613272565b50829750879550505050505092915050565b5f6020820190508181035f8301526132d48184613249565b905092915050565b5f602082840312156132f1576132f0612b23565b5b5f6132fe84828501612d54565b91505092915050565b5f805f6060848603121561331e5761331d612b23565b5b5f84013567ffffffffffffffff81111561333b5761333a612b27565b5b613347868287016130ab565b935050602084013567ffffffffffffffff81111561336857613367612b27565b5b613374868287016130ab565b925050604084013567ffffffffffffffff81111561339557613394612b27565b5b6133a1868287016130ab565b9150509250925092565b5f80604083850312156133c1576133c0612b23565b5b5f6133ce85828601612d54565b92505060206133df85828601612e0c565b9150509250929050565b5f67ffffffffffffffff82111561340357613402612fb4565b5b61340c82612c20565b9050602081019050919050565b5f61342b613426846133e9565b613012565b90508281526020810184848401111561344757613446612fb0565b5b61345284828561305c565b509392505050565b5f82601f83011261346e5761346d612fac565b5b813561347e848260208601613419565b91505092915050565b5f805f806080858703121561349f5761349e612b23565b5b5f6134ac87828801612d54565b94505060206134bd87828801612d54565b93505060406134ce87828801612ca7565b925050606085013567ffffffffffffffff8111156134ef576134ee612b27565b5b6134fb8782880161345a565b91505092959194509250565b5f806040838503121561351d5761351c612b23565b5b5f61352a85828601612d54565b925050602061353b85828601612d54565b9150509250929050565b7f4e487b71000000000000000000000000000000000000000000000000000000005f52602260045260245ffd5b5f600282049050600182168061358957607f821691505b60208210810361359c5761359b613545565b5b50919050565b7f4552433732313a20617070726f76616c20746f2063757272656e74206f776e655f8201527f7200000000000000000000000000000000000000000000000000000000000000602082015250565b5f6135fc602183612be8565b9150613607826135a2565b604082019050919050565b5f6020820190508181035f830152613629816135f0565b9050919050565b7f4552433732313a20617070726f76652063616c6c6572206973206e6f7420746f5f8201527f6b656e206f776e6572206f7220617070726f76656420666f7220616c6c000000602082015250565b5f61368a603d83612be8565b915061369582613630565b604082019050919050565b5f6020820190508181035f8301526136b78161367e565b9050919050565b7f546f6b656e206e6f74207472616e7366657261626c65000000000000000000005f82015250565b5f6136f2601683612be8565b91506136fd826136be565b602082019050919050565b5f6020820190508181035f83015261371f816136e6565b9050919050565b7f4f6e6c79206f776e65722063616e2073657420666f726b61626c6500000000005f82015250565b5f61375a601b83612be8565b915061376582613726565b602082019050919050565b5f6020820190508181035f8301526137878161374e565b9050919050565b7f43616e6e6f7420626520666f726b6564000000000000000000000000000000005f82015250565b5f6137c2601083612be8565b91506137cd8261378e565b602082019050919050565b5f6020820190508181035f8301526137ef816137b6565b9050919050565b7f4552433732313a20696e76616c696420746f6b656e20494400000000000000005f82015250565b5f61382a601883612be8565b9150613835826137f6565b602082019050919050565b5f6020820190508181035f8301526138578161381e565b9050919050565b7f546f6b656e206973206e6f7420666f726b61626c6500000000000000000000005f82015250565b5f613892601583612be8565b915061389d8261385e565b602082019050919050565b5f6020820190508181035f8301526138bf81613886565b9050919050565b7f496e73756666696369656e742066756e647300000000000000000000000000005f82015250565b5f6138fa601283612be8565b9150613905826138c6565b602082019050919050565b5f6020820190508181035f830152613927816138ee565b9050919050565b7f4e487b71000000000000000000000000000000000000000000000000000000005f52601160045260245ffd5b5f61396582612c88565b91507fffffffffffffffffffffffffffffffffffffffffffffffffffffffffffffffff82036139975761399661392e565b5b600182019050919050565b7f4e487b71000000000000000000000000000000000000000000000000000000005f52603260045260245ffd5b7f4552433732313a2061646472657373207a65726f206973206e6f7420612076615f8201527f6c6964206f776e65720000000000000000000000000000000000000000000000602082015250565b5f613a29602983612be8565b9150613a34826139cf565b604082019050919050565b5f6020820190508181035f830152613a5681613a1d565b9050919050565b7f4f6e6c79206f776e65722063616e20756e73657420666f726b61626c650000005f82015250565b5f613a91601d83612be8565b9150613a9c82613a5d565b602082019050919050565b5f6020820190508181035f830152613abe81613a85565b9050919050565b7f43616e6e6f7420626520756e666f726b656400000000000000000000000000005f82015250565b5f613af9601283612be8565b9150613b0482613ac5565b602082019050919050565b5f6020820190508181035f830152613b2681613aed565b9050919050565b7f4552433732313a2063616c6c6572206973206e6f7420746f6b656e206f776e655f8201527f72206f7220617070726f76656400000000000000000000000000000000000000602082015250565b5f613b87602d83612be8565b9150613b9282613b2d565b604082019050919050565b5f6020820190508181035f830152613bb481613b7b565b9050919050565b5f81905092915050565b5f613bcf82612bde565b613bd98185613bbb565b9350613be9818560208601612bf8565b80840191505092915050565b5f613c008285613bc5565b9150613c0c8284613bc5565b91508190509392505050565b7f4f6e6c79206f776e65722063616e206275726e000000000000000000000000005f82015250565b5f613c4c601383612be8565b9150613c5782613c18565b602082019050919050565b5f6020820190508181035f830152613c7981613c40565b9050919050565b5f819050815f5260205f209050919050565b5f6020601f8301049050919050565b5f82821b905092915050565b5f60088302613cdc7fffffffffffffffffffffffffffffffffffffffffffffffffffffffffffffffff82613ca1565b613ce68683613ca1565b95508019841693508086168417925050509392505050565b5f819050919050565b5f613d21613d1c613d1784612c88565b613cfe565b612c88565b9050919050565b5f819050919050565b613d3a83613d07565b613d4e613d4682613d28565b848454613cad565b825550505050565b5f90565b613d62613d56565b613d6d818484613d31565b505050565b5b81811015613d9057613d855f82613d5a565b600181019050613d73565b5050565b601f821115613dd557613da681613c80565b613daf84613c92565b81016020851015613dbe578190505b613dd2613dca85613c92565b830182613d72565b50505b505050565b5f82821c905092915050565b5f613df55f1984600802613dda565b1980831691505092915050565b5f613e0d8383613de6565b9150826002028217905092915050565b613e2682612bde565b67ffffffffffffffff811115613e3f57613e3e612fb4565b5b613e498254613572565b613e54828285613d94565b5f60209050601f831160018114613e85575f8415613e73578287015190505b613e7d8582613e02565b865550613ee4565b601f198416613e9386613c80565b5f5b82811015613eba57848901518255600182019150602085019450602081019050613e95565b86831015613ed75784890151613ed3601f891682613de6565b8355505b6001600288020188555050505b505050505050565b7f4552433732313a20617070726f766520746f2063616c6c6572000000000000005f82015250565b5f613f20601983612be8565b9150613f2b82613eec565b602082019050919050565b5f6020820190508181035f830152613f4d81613f14565b9050919050565b7f4552433732313a207472616e7366657220746f206e6f6e2045524337323152655f8201527f63656976657220696d706c656d656e7465720000000000000000000000000000602082015250565b5f613fae603283612be8565b9150613fb982613f54565b604082019050919050565b5f6020820190508181035f830152613fdb81613fa2565b9050919050565b7f4e487b71000000000000000000000000000000000000000000000000000000005f52601260045260245ffd5b7f4552433732313a207472616e736665722066726f6d20696e636f7272656374205f8201527f6f776e6572000000000000000000000000000000000000000000000000000000602082015250565b5f614069602583612be8565b91506140748261400f565b604082019050919050565b5f6020820190508181035f8301526140968161405d565b9050919050565b7f4552433732313a207472616e7366657220746f20746865207a65726f206164645f8201527f7265737300000000000000000000000000000000000000000000000000000000602082015250565b5f6140f7602483612be8565b91506141028261409d565b604082019050919050565b5f6020820190508181035f830152614124816140eb565b9050919050565b5f81519050919050565b5f82825260208201905092915050565b5f61414f8261412b565b6141598185614135565b9350614169818560208601612bf8565b61417281612c20565b840191505092915050565b5f6080820190506141905f830187612d16565b61419d6020830186612d16565b6141aa6040830185613132565b81810360608301526141bc8184614145565b905095945050505050565b5f815190506141d581612b56565b92915050565b5f602082840312156141f0576141ef612b23565b5b5f6141fd848285016141c7565b91505092915050565b7f4552433732313a206d696e7420746f20746865207a65726f20616464726573735f82015250565b5f61423a602083612be8565b915061424582614206565b602082019050919050565b5f6020820190508181035f8301526142678161422e565b9050919050565b7f4552433732313a20746f6b656e20616c7265616479206d696e746564000000005f82015250565b5f6142a2601c83612be8565b91506142ad8261426e565b602082019050919050565b5f6020820190508181035f8301526142cf81614296565b905091905056fea26469706673582212203de3d8f080c7ffbbc11e2d89a04b88b7e2036360f29004cb9bb02e86c5f3752564736f6c63430008140033",
  "linkReferences": {},
  "deployedLinkReferences": {}
}